:020000040800F2
:10000000980C0020810100086504000861040008C4
:1000100000000000000000000000000000000000E0
:10002000000000000000000000000000A70400081D
:100030000000000000000000A3040008AB0400085A
:10004000AD010008AD01000800000000AD0100088E
:10005000AD010008AD010008AD010008AD010008C8
:10006000AD01000835040008AD010008AD0100082D
:10007000AD010008AD010008AD010008AD010008A8
:10008000AD010008AD010008AD010008AD01000898
:10009000AD010008AD010008AD010008AD01000888
:1000A000AD010008AD010008AD010008AD01000878
:1000B000AD010008AD010008AD010008AD01000868
:1000C00000000000AD010008AD010008AD0100080E
:1000D000AD010008AD010008AD01000800F002F814
:1000E00000F03EF80CA030C8083824182D18671E00
:1000F000A246AB4654465D46AC4201D100F030F812
:100100007E460F3EB6460FCC0126334200D0FB1A86
:100110003343A246AB461847FC2000001C210000D8
:10012000103A02D378C878C1FAD8520701D330C840
:1001300030C101D504680C60704700000023002422
:1001400000250026103A01D378C1FBD8520700D30E
:1001500030C100D50B6070471FB51FBD10B510BD75
:1001600000F034F91146FFF7F7FF01F09DFE00F0B3
:100170004CF903B4FFF7F2FF03BC00F053F90000A1
:100180000E4802680E480240120C92020D4940F2DD
:10019000000001C1121F002AFBD10B4880470B4809
:1001A0000047FEE7FEE7FEE7FEE7FEE7FEE70000AA
:1001B00007480849084A094B70470000E00BFF1F39
:1001C0000000FFFF00000020AD040008DD00000873
:1001D00098040020980C002098080020980800201F
:1001E0004343514330B55C18010C130C0D4692B2D9
:1001F0005D4380B251432C19054655430A0C09044E
:100200004D1962415843010C00044019514130BD61
:1002100070B5054610460C4618430ED0002108461E
:10022000891A984127DA00210846491BA04118DAAB
:100230002846214600F03FF870BD002C03DA012368
:100240000022DB0707E000210846491BA04102DA33
:100250000022D243530810461946C046C0462A46DB
:1002600027E000216842A14100F025F80024404227
:100270008C4121461AE000210846491BA0410CDAB6
:1002800021460020524298410346284600F013F8C8
:10029000002440428C41214670BD002052429841CA
:1002A000002103466842A14100F005F800245242B3
:1002B0009C41234670BDFEB5044610460D461843CA
:1002C00073D0A6468C460020A41A01469D4167D3F0
:1002D0006646002701243D46B61A9D4102D31346C7
:1002E0003A462124654676462F04360C3E432D0CB3
:1002F000B61A9D4104D3150C1B042B431204103471
:10030000654676462F06360A3E432D0AB61A9D41AB
:1003100004D3150E1B022B431202083465467646A1
:100320002F0736093E432D09B61A9D4104D3150FF8
:100330001B012B431201241D65467646AF07B60804
:100340003E43AD08B61A9D4104D3950F9B002B4345
:100350009200A41C65467646EF0776083E436D087A
:10036000B61A9D411AD392185B41641C16E000181E
:10037000764665464941B71A9D410191009009D3DF
:100380006046B11A98418E4684460098019900252E
:10039000401C6941DD0752082A435B08641EE6D50C
:1003A0007246634603B0F0BDFFE72046284307D0FE
:1003B0000020C0430146C046C04622462B46F1E716
:1003C00000200146F7E7704770477047754600F018
:1003D00025F8AE46050069465346C008C00085466C
:1003E00018B020B5FFF7E4FE60BCB6460026002733
:1003F000C0C5C0C5C0C5C0C5C0C5C0C5C0C5C0C5D5
:10040000403D490849008D46704710B50446C04636
:10041000C0462046FFF7ADFE10BD00000048704703
:100420002000002001491820ABBEFEE72600020094
:100430007047000080B5102001F03AF868B1FFE77E
:10044000102001F02DF80548806928B1FFE7034826
:10045000816900208847FFE7FFE780BD000000209A
:10046000FFE7FEE780B5012001F056FE012807D125
:10047000FFE7FFE7FFE701200028FBD1FFE70FE0E0
:10048000022001F049FE012807D1FFE7FFE7FFE75F
:1004900001200028FBD1FFE701E0FFE7FEE7FFE7CF
:1004A00080BDFFE7FEE7FFE7FEE7704780B582B05B
:1004B00016490868012210430860FFE713480068E6
:1004C0008007002801D4FFE7F8E7114908680322F4
:1004D000904308600D4A10680D231B049843106078
:1004E00008680C4A104008600B4908680B4A104025
:1004F00008600B4900200190086001F025FE019979
:100500000120C00601F01EFD02B080BD00100240B7
:10051000081002400CC7FF888C1002407CE0FFFFEF
:100520000C10024081B0014668460170007840B26C
:1005300000280DD4FFE76846007841B21F200A4624
:1005400002400120904049098900024A8850FFE793
:1005500001B0704700E100E070B582B0024601A82A
:1005600002700091007840B2002817D4FFE701A97B
:10057000087840B20322D3431840184A80580978BB
:1005800049B28C07E50EFF24AC40A043009CA401B7
:10059000E4B2AC402043194088501AE001A9087821
:1005A0000F24204008380322D34318400A4A8058B9
:1005B000097849B28D07EE0EFF25B540A843009D8E
:1005C000AD01EDB2B54028432140083919408850AB
:1005D000FFE702B070BDC0461CED00E000E400E0A3
:1005E00083B0024602A802700191007800900128B1
:1005F00004D0FFE70098022817D02DE0019898B1A9
:10060000FFE7019810280FD8FFE716490A680F2066
:10061000000582430A60019A1205114BD21802406C
:10062000086810430860FFE717E0019898B1FFE7FA
:10063000019804280FD8FFE7ED490A680320000558
:1006400082430A60019A1205054BD21802400868DD
:1006500010430860FFE700E0FFE703B07047C046C3
:100660000000F0FF2C24014080B586B0022000F08D
:1006700019FAFFE7042000F009F901460120019072
:1006800039B1FFE7022000F001F9414248410190F1
:10069000FFE70198C00708B1FFE7EBE7002000F093
:1006A000ADF904A900910880012000F0A7F9009994
:1006B0004880042000F0DCF8022000F0D9F800980F
:1006C000008801F009FC014600980391408801F080
:1006D00003FC029003998C4800F078FA01F014F8BA
:1006E0000149086006B080BD8C04002080B584B04C
:1006F000022002900021009100F0F4F940F2001075
:100700000121039100F0EEF9009800F025F802991C
:100710000846FFF765FF009907220192084600F09E
:10072000F7F8019A0399084600F0F2F8029847F2A8
:10073000000100F073F80298039900F02FF8039974
:10074000C80500F091F90399080600F08DF900F052
:1007500019F804B080BD000081B00090009838B155
:10076000FFE7DF49086840F600021043086006E032
:10077000DB49086840F6000290430860FFE701B0DB
:100780007047C046D6480068C00730B9FFE7D44973
:100790000868012210430860FFE7704782B001AA91
:1007A000107068460170007801281AD1FFE701A88F
:1007B0000078C00738B1FFE7F64908680122120542
:1007C00010430860FFE701A800788007002807D5DC
:1007D000FFE7F049086848F2000210430860FFE7AD
:1007E00019E001A80078C00738B1FFE7E9490868B7
:1007F0000122120590430860FFE701A800788007F6
:10080000002807D5FFE7E349086848F20002904353
:100810000860FFE7FFE702B07047C04683B00246BA
:1008200002A80270019100780090012804D0FFE72F
:10083000009802280CD017E0D6490A680720400427
:1008400082430A60019A02400868104308600CE085
:10085000D0490A6847F2000082430A60019A0240C8
:1008600008681043086000E0FFE703B07047C04627
:1008700081B000900098C243034802430D490868C4
:100880001040086001B07047E0FFFF3F82B0019068
:10089000694600200870074800680199084204D0A2
:1008A000FFE7694601200870FFE76846007802B05C
:1008B0007047C0460024014080B584B00A4801F06A
:1008C000BFFB0920C0060190032102910022039280
:1008D000012300F081FE01980299039A022300F09F
:1008E0007BFE04B080BDC046110D000080B501F054
:1008F00087FBFFF7E1FFFFF7F9FE034800F04CF933
:10090000024800F049F980BD80000020C8000020A6
:1009100070B586B0034605A8037004AB1970039246
:1009200033490968032212051140090D02AA11700A
:100930000078032821D8FFE72D490868019002AC10
:10094000207805AD2A78801A05231A4642430F20E5
:10095000821A06469640019AB243019204AA12787E
:10096000024024782D78641B6343C01A82400198AA
:100970001043019001980860FFE704A80078092857
:1009800019DCFFE71C490868009004AB1C780320C1
:1009900002466243072425469540009AAA430092E6
:1009A000039A22401B7858438240009810430090DD
:1009B000009808601AE00F490868009004AB1C78A2
:1009C0000320024662431E3A072425469540009ABA
:1009D000AA430092039A22401B7858431E38824053
:1009E00000981043009000980860FFE706B070BDC3
:1009F000382401400C2401401024014083B00146FA
:100A000002A80170002101910078009003281DD8F0
:100A100000998A0001A080188746C04600F006B8F9
:100A200000F008B800F00AB800F00CB80D480068F3
:100A300001900CE00A480068019008E0074800684F
:100A4000019004E004480068019000E0FFE701A87D
:100A5000008803B07047C046482401404424014048
:100A6000402401403C24014082B00190684601705E
:100A70000078012809D1FFE7019A0320C005024050
:100A8000444908681043086008E00198C2430448DC
:100A900002434049086810400860FFE702B0704711
:100AA000FFFF7FFE81B00146684601700078C007F5
:100AB00038B1FFE737490868012292051043086002
:100AC000FFE7684600788007002807D5FFE731492F
:100AD00008680122520510430860FFE701B0704723
:100AE0000824014082B00190684601700078012816
:100AF00026D1FFE701A84078C00738B1FFE72449B5
:100B0000086840F2001210430860FFE701A840782F
:100B10004007002807D5FFE71D49086840F200425A
:100B200010430860FFE701A800788007002806D579
:100B3000FFE718490868022210430860FFE725E034
:100B400001A84078C00738B1FFE71149086840F2B2
:100B5000001290430860FFE701A840784007002892
:100B600007D5FFE70A49086840F200429043086051
:100B7000FFE701A800788007002806D5FFE70549B0
:100B80000868022290430860FFE7FFE702B0704761
:100B9000042401400824014082B0019001994022C0
:100BA00000208854019948640090FFE700980F28BE
:100BB0000ADCFFE701990098820000208850FFE7D7
:100BC0000098401C0090F1E702B0704782B001909D
:100BD0000091019A4021505C80001358506CC01A5B
:100BE00050640098019A535C9B00D050009B019A7E
:100BF000506CC0185064019A505C401C50540198CD
:100C0000405C102805DBFFE7019940220020885452
:100C1000FFE70198406C000902B0704782B0019074
:100C20000091019808B1FFE707E0009801991C22A4
:100C30004A43364989188861FFE702B07047C046C9
:100C400080B58CB041F2001001F0FAF900200B9051
:100C5000FFE70B98002857D1FFE70B981C21414371
:100C60002A4840180A900A98008801F0E9F90A9881
:100C7000007B18B9FFE7002007900BE00A98017B82
:100C8000059102200129069001D105980690069849
:100C90000790FFE7079809900A994868099A8B68B6
:100CA0000021049100F098FC04990A9814228056BF
:100CB00001F030F90A99887BC97B01F0D3F90A98D1
:100CC000407B18B9FFE7002003900BE00A98417BB6
:100CD000019102200129029001D10198029002980D
:100CE0000390FFE7039808A908700A9800690A783A
:100CF000002100F065FB0A98006900F0D1FBFFE7D6
:100D00000B98401C0B90A4E70CB080BD00000020A5
:100D100080B586B005A801900021029101701548A8
:100D2000009001700172144A4260144AC261144A70
:100D30000262144A8262C1621349016301F04AF8F7
:100D4000019902980870FFE705A800787F280EDC5B
:100D5000FFE705A80178074800F098FD08B9FFE70C
:100D600005E0FFE70598401C05A90870ECE706B010
:100D700080BDC04654040020801A06009D0D000866
:100D800055170008C9170008FD17000881B000902A
:100D90000098401EFDD1009001B0704780B582B030
:100DA00001A9088000200090FFE7009801A90988A8
:100DB000884208DAFFE70520FFF7E8FFFFE7009821
:100DC000401C0090F1E702B080BD000080B586B005
:100DD00004900391002002900190FFE70498544989
:100DE00000F0F8F83F21084018280BDBFFE70498D3
:100DF0000399029A8A18182100F0CCF8029818304A
:100E00000290FFE704984A4900F0E4F8800640B9F0
:100E1000FFE7029828B9FFE7049900208870059041
:100E200028E0FFE7049880780028D7D0FFE70499EE
:100E30000020887004983E4900F0CCF83F2108401B
:100E40000190049801A90978039A029BD21800F036
:100E5000A1F801990298401802900298022803D83C
:100E6000FFE70020059005E00298801E029002989E
:100E70000590FFE7059806B080BDC04680B586B0F6
:100E800005900491039204980290039801900298AF
:100E9000202809D8FFE70598019902AA127800F0E6
:100EA0006DF9002002900BE005980199202200F0D6
:100EB00065F9029820380290019820300190FFE7F0
:100EC0000598F149552200F06DF9FFE7029848B303
:100ED000FFE70598164900F07DF83F2108400828F3
:100EE0001ADCFFE70298182809D8FFE7059801994E
:100EF00002AA127800F042F9002002900BE0059857
:100F00000199182200F03AF90298183802900198D5
:100F100018300190FFE7FFE70598DB49552200F004
:100F200041F9D3E705990020C87006B080BDC046DE
:100F3000F2FF000010B58CB00E9C0B900A9109A82E
:100F40000390028008AC0494238007A90691002036
:100F5000059008700B98416801208847039A0B9907
:100F6000C868097C12880A9B2478019400930223A4
:100F700000F002FD0499069B024605981A70098844
:100F80000E9A11600B9949688847069800780CB052
:100F900010BD000080B588B0029202460298069209
:100FA00005AA1170049006980499137803AA009278
:100FB0007B4AFFF7BFFF20B1FFE707A901200870B8
:100FC00003E007A900200870FFE707A8007808B031
:100FD00080BDC04680B588B0029101460298069156
:100FE00005A9088006980A8803A9009104A901238D
:100FF000FFF7A0FF20B9FFE7049807A9087003E0F6
:1010000007A9FF200870FFE707A8007808B080BD97
:1010100010B588B0069005A8009001800492039353
:1010200002A90020087006984168012088470698A8
:10103000816840F2F410884700980088102806DB89
:10104000FFE705A800884C49884204DBFFE707A9B1
:10105000012008708BE005A800880007002844D014
:10106000FFE705A801880F2001401020401A01A9C0
:10107000087004980978884221D9FFE706980399F7
:1010800005AA128801AB1B7800F07AF9014602A884
:101090000170007820B1FFE7029807A9087066E0A8
:1010A00001A802780599891805AA11800278039988
:1010B0008918039101780498401A049014E0069866
:1010C000039905AA128804AB1B7800F059F9014670
:1010D00002A80170007820B1FFE7029807A9087004
:1010E00045E000200490FFE7FFE7FFE70498B0B376
:1010F000FFE7049810281CD3FFE70698039905AA78
:101100001288102300F03CF9014602A80170007813
:1011100020B1FFE7029807A9087028E00598103071
:1011200005A90880039810300390049810380490A3
:1011300014E00698039905AA128804AB1B7800F006
:101140001FF9014602A80170007820B1FFE702985C
:1011500007A908700BE000200490FFE7C6E7069897
:10116000416800208847029807A90870FFE707A890
:10117000007808B010BDC046FF03000080B584B001
:101180000092024600980392029101AA10700398FF
:1011900002991378024A00F0F3F804B080BDC0460B
:1011A000F0FF000080B584B00092024600980392E0
:1011B00002AA118001A9087003981288012300F087
:1011C000DFF804B080BD80B584B00191014601987C
:1011D000039102A9088003980988FFF7FBFE04B079
:1011E00080BD000080B58AB0089000220792069268
:1011F00005920492039223480290089801A9009155
:1012000003A91023FFF796FE0790079820B1FFE788
:10121000079809A9087030E003A8C079102828D1E0
:10122000FFE7089840F29031042202ABFFF7F0FE8E
:101230000790079820B1FFE7079809A908701CE0FC
:1012400008984C497722FFF7ADFF08984A49552284
:10125000FFF7A8FF089881680C488847089801A9FB
:10126000009103A940F290320423FFF763FE079038
:10127000FFE709A901200870FFE709A800780AB074
:1012800080BDC046908011FEF4FF0000C40900003C
:1012900080B584B0039002A8017001AA00211170EA
:1012A00000780006002806D5FFE703982E490122A2
:1012B000FFF778FFFFE702A800788006002804D532
:1012C000FFE7039901204870FFE702A80078C006F5
:1012D000002804D5FFE7039901208870FFE702A8E2
:1012E00000780007002804D5FFE703990120C870A3
:1012F000FFE702A800784006002806D5FFE703981C
:1013000019490122FFF74EFFFFE702A80078800786
:10131000002805D5FFE703981449FFF75BFEFFE7B8
:1013200002A80078C007E0B1FFE703981049FFF773
:1013300051FE014601A801700078400700280FD532
:10134000FFE703980B497722FFF72CFF03980A4920
:101350005522FFF727FF0398816808488847FFE771
:10136000FFE7012004B080BDF5FF0000F8FF00009A
:10137000F9FF0000F4FF0000E6FF0000DC050000BC
:1013800010B58AB00392024603980992089107AA01
:10139000108006AC237005A90491002008700999FB
:1013A000C868097C1288089B247801940093022362
:1013B00000F09DFC01460498017000780AB010BD51
:1013C00085B0049003A8017002A90A70049B304AFA
:1013D000116899431160049B2E4A1168994311606A
:1013E000049B2D4A116899431160049B2B4A116894
:1013F000994311600078019020B1FFE7019801281E
:1014000006D00BE0049A224908681043086006E001
:10141000049A204908681043086000E0FFE702A82A
:101420000078009003282FD800998A0001A0801826
:101430008746C04600F006B800F00FB800F018B8B4
:1014400000F021B8049A1449086810430860049A0F
:10145000124908689043086017E0049A0E4908682A
:1014600090430860049A0D490868104308600CE036
:10147000049A0949086810430860049A07490868F3
:101480001043086001E000E0FFE705B07047C04688
:101490000004014004040140080401400C04014020
:1014A00081B0009000980E49086001B07047C046B6
:1014B00082B00190694600200870094800680199CF
:1014C000084204D0FFE769460120087003E069463E
:1014D00000200870FFE76846007802B07047C046F9
:1014E0001404014080B582B0014601A80170007863
:1014F00030B1FFE7CE484021002200F043F805E07C
:10150000CB484021012200F03DF8FFE702B080BD4A
:1015100080B582B01948572101740B4981600B498D
:10152000C1600B494160FFF75DFE014601A80170F3
:10153000007810B9FFE7FFE7FEE706490020FFF754
:101540006DFB02B080BDC0469D0D00085404002014
:10155000E51400085915000880B584B003A9087087
:10156000064801900649FFF72EFE0246019802A99F
:101570000A700978FFF78CFE04B080BD10010020CE
:10158000F7FF000083B00290019168460270007876
:1015900028B1FFE701A800880299886104E001A84A
:1015A000008802998862FFE703B0704783B0029019
:1015B00001910298016901980840000420B1FFE7F9
:1015C00069460120087003E0694600200870FFE7C3
:1015D0006846007803B0704787B006900591049282
:1015E00003930698006801900698C068009002A9CD
:1015F00000200880FFE702A800880F282FD8FFE707
:1016000002A8018803A80088C840C00708B3FFE704
:1016100002A801884900032213468B40019999438F
:101620000191059B1340018849008B4001991943A2
:1016300001910188490013468B400099994300911C
:1016400004991140008840008140009808430090B0
:10165000FFE7FFE70298401C02A90880CBE701984A
:101660000699086000980699C86007B070470000A6
:1016700010B586B0059004A801700392029300781B
:10168000C00738B1FFE702A80288059948681043EF
:10169000486008E00298C2431A4802430599486826
:1016A00010404860FFE705988068009001A900207D
:1016B0000880FFE701A800880F281ED8FFE701A8CF
:1016C000018802A80088C840C00780B1FFE701A8D0
:1016D0000188012213468B40009999430091039998
:1016E000114000888140009808430090FFE7FFE721
:1016F0000198401C01A90880DCE7009805998860E2
:1017000006B010BD0000FFFF80B586B005900599BA
:101710000804090C40F2504200230093FEF7CBFD71
:101720000490049800F070FB01460098039103991F
:10173000029102998A310291029AD3170121FEF790
:1017400067FD0190019802494018001406B080BD61
:101750009AD9EEFE80B588B0194800F071FC19489E
:1017600000F06EFC324802900121069100220592A1
:1017700040230193FFF730FF019B02980599069AD9
:10178000FFF776FF0298069A802303931146FFF72E
:1017900023FF0298039B069A1146FFF769FF059AFB
:1017A00006990920C006049008230793FFF714FF49
:1017B00004980599069A079BFFF75AFF08B080BD69
:1017C000120D0000110D000080B582B0024601A884
:1017D00002706A461170007838B9FFE768460278EF
:1017E00013484021FFF7CEFE06E068460278104815
:1017F0008021FFF7C7FEFFE702B080BD80B582B051
:10180000014668460170007838B9FFE70848402172
:10181000FFF7CCFE01A9087006E005488021FFF71C
:10182000C5FE01A90870FFE701A8007802B080BDDD
:101830000004004880B584B0039003980078F8B99C
:10184000FFE70398826A01200290002101919047EE
:1018500001980299039A926A90470398C169008B94
:10186000884701990398826A084690470398C1699E
:10187000008B884702990398826A0846904703E0E4
:101880000398006B8047FFE704B080BD80B584B04B
:10189000029001A801706946002008700298007A41
:1018A00028B1FFE702980169C0688847FFE70298FE
:1018B000016B0120884720B3FFE70298016B0020ED
:1018C0008847F0B1FFE7029800F088F90298019983
:1018D0004906090E00F02EF9029800F0CDF969468C
:1018E0000870029800F0A1F90298007A28B1FFE789
:1018F00002984169C0688847FFE7009803A908700B
:101900000FE0029800F091F90298007A28B1FFE701
:1019100002984169C0688847FFE703A90120087061
:10192000FFE703A8007804B080BD80B584B00390C1
:1019300003980078D0B9FFE70398826A01210191EA
:101940000846904701990398826A002002909047C8
:101950000398C169008B884702990398826A0846F8
:1019600090470398C169008B884703E00398406B58
:101970008047FFE704B080BDB0B586B004460B9841
:101980000A9D059404AC217003A90A8002A90B707A
:1019900001A908706946002008700598007A28B1EE
:1019A000FFE705980169C0688847FFE702A800784B
:1019B00078B3FFE7059800F011F9059804994906F6
:1019C000090E00F0B7F8059800F056F920B1FFE7CE
:1019D0006946012008704EE002A80078022809D16B
:1019E000FFE7059803A9497800F0A4F8059800F0EE
:1019F00043F9FFE7059803A9097800F09BF80598DB
:101A000000F03AF920B1FFE769460220087032E0A1
:101A1000FFE7059800F0E2F8059804994900491C91
:101A2000C9B200F087F8059800F026F920B1FFE769
:101A30006946032008701EE0FFE701A8007801282E
:101A400010D0FFE7059800F026F80A994A1C0A9280
:101A500008700598FFF7EEFEFFE70198401E01A908
:101A60000870EAE7059800F016F80A9908700598DA
:101A7000FFF75BFFFFE7059800F0D7F80598007ABD
:101A800028B1FFE705984169C0688847FFE76846C5
:101A9000007806B0B0BD80B584B0039001A90020E5
:101AA000087003980078D8BBFFE702A900200870EF
:101AB000FFE702A80078072831DCFFE70198400023
:101AC00001A908700398826A0020012190470398B9
:101AD000C169008B88470398C06A30B1FFE703985B
:101AE000C26A012000219047FFE70398016B0120A3
:101AF000884728B1FFE70198401C01A90870FFE75B
:101B00000398826A0021084690470398C169008BB8
:101B10008847FFE70298401C02A90870C9E705E062
:101B20000398806A804701A90870FFE701A8007840
:101B300004B080BD80B584B0039002A80170039802
:101B40000078002842D1FFE701A900200870FFE7D4
:101B500001A8007807282EDCFFE70398826A00219D
:101B60000846904702A800780006002806D5FFE73F
:101B70000398826A01210846904705E00398826A2B
:101B8000012000219047FFE70398C169008B884737
:101B90000398826A0020012190470398C169008B55
:101BA00088470298400002A90870FFE70198401C8E
:101BB00001A90870CCE70398826A00210846904783
:101BC0000398826A01210846904705E00398416A1C
:101BD00002A800788847FFE704B080BD80B584B0D4
:101BE000039003980078D0B9FFE70398826A012137
:101BF00001910846904701990398826A002002905B
:101C000090470398C169008B884701980299039A0D
:101C1000926A90470398C169008B884703E0039854
:101C2000C0698047FFE704B080BD80B584B00390F1
:101C300003980078D0B9FFE70398826A01200290E8
:101C400000210191904701980299039A926A904766
:101C50000398C169008B884702990398826A0846F5
:101C600090470398C169008B884703E00398006A96
:101C70008047FFE704B080BD80B584B0039003982F
:101C8000007860BBFFE70398C06A30B1FFE70398B4
:101C9000C26A012000219047FFE70398826A002072
:101CA0000121019190470398C169008B88470198F1
:101CB0000399096B884720B1FFE702A9012008704A
:101CC00003E002A900200870FFE70398826A002160
:101CD000084690470398C169008B884703E0039842
:101CE000C06A8047FFE702A8007804B080BDB0B5A5
:101CF00086B004460B980A9D059404AC217003A994
:101D00000A8002A90B7001A90870694600200870BA
:101D10000598007A28B1FFE705980169C0688847EF
:101D2000FFE70598FFF75AFF059804994906090E41
:101D3000FFF700FF0598FFF79FFF20B1FFE7694617
:101D40000120087036E002A80078E8B1FFE702A899
:101D50000078022809D1FFE7059803A94978FFF721
:101D6000E9FE0598FFF788FFFFE7059803A90978C2
:101D7000FFF7E0FE0598FFF77FFF20B1FFE7694618
:101D80000220087016E0FFE7FFE701A8007880B1A5
:101D9000FFE705980A994A1C0A920978FFF7CAFEDC
:101DA0000598FFF747FDFFE70198401E01A908705D
:101DB000EBE7FFE70598FFF738FF0598007A28B1B1
:101DC000FFE705984169C0688847FFE768460078E3
:101DD00006B0B0BD80B582B001900198007850B9CE
:101DE000FFE70198006A804701994A680548B0FBFF
:101DF000F2F0088304E00198816940688847FFE7B2
:101E000002B080BD20A1070080B586B005900020FB
:101E10000490FFE7059801214904884207DBFFE7AA
:101E20000598401005900498401C0490F2E7FFE7E5
:101E300005981A49884207DCFFE70598400005909D
:101E40000498401E0490F3E7059815494018039044
:101E5000039AD31710461946FEF7C2F90904000C7D
:101E6000401802900298C117039AD317FEF7B8F9E9
:101E70000904000C40180190039802994910401A77
:101E80000199032291FBF2F1401800900098049A06
:101E900004495143401806B080BDC046FFFF000012
:101EA0000000FFFF72B1000080B582B000200190F9
:101EB000FEF7C6FEFEF72CFFFFF72AFB00F09CF9A9
:101EC000FEF714FDFFE7FEF7CFFB024800F04CF8E9
:101ED000F9E7C0461001002081B001466846018044
:101EE00000880949884204D1FFE76946074808800D
:101EF000FFE768460288064850430349891A90FB69
:101F0000F1F001B07047C046FF0F0000FE0F000067
:101F10005C12000080B584B00A46014603A8019017
:101F2000017002A90A70007840B2097803221140BA
:101F3000FEF712FB0198007840B2FEF7F3FA04B006
:101F400080BD000082B00190009101980099044A80
:101F50001140084303490860BFF34F8F02B0704738
:101F600080FFFF1F08ED00E080B582B0019001986E
:101F7000807820B9FFE701984078C8B1FFE7019861
:101F80000C490091FEF722FF009A0B4908700B489C
:101F9000C178D1708178917041785170007810705B
:101FA00001980421FEF76AFF019900204870FFE7BD
:101FB00002B080BD34010020940400208C04002075
:101FC00083B0029001910D4908680090009A41F693
:101FD000006082430092009B40F280129343009382
:101FE000029B1340009A1A430092019A0240009803
:101FF000104300900098086003B070478C100240B6
:1020000080B5044800F01CF8002041F20061FFF7A1
:10201000D7FF80BD0911000082B0019074490868A3
:102020000090009A0720400782430092019A0240E4
:102030000098104300900098086002B07047C046B6
:1020400081B001466846018000881F220146114088
:1020500001238B408109664A88581843885001B093
:102060007047C04685B00A4604A9087003A80270EC
:1020700002789207130F0F229A40D24302920978F6
:1020800002789207120F9140019100788008009029
:10209000032835D800998A0001A080188746C046D9
:1020A00000F006B800F00EB800F016B800F01EB848
:1020B000029A1849086810400860019A086810439D
:1020C00008601EE0029A1249086810400860019AF0
:1020D00008681043086014E0029A0C490868104030
:1020E0000860019A0868104308600AE0029A0649ED
:1020F000086810400860019A08681043086000E012
:10210000FFE705B07047C0461400014010000140D1
:102110000C0001400800014082B0019009480168AC
:1021200001980840800720B1FFE769460120087048
:1021300003E0694600200870FFE76846007802B0B7
:102140007047C0461C00014080B500F001F880BD1A
:1021500080B584B0002003900290244A11680120C9
:102160000143062399431160214A1168014311601C
:102170008007FFF751FFFFE70398401C03901C48BE
:102180000068022108400290FFE7029900200190B8
:1021900041B9FFE7039840F20051401A411E8841BF
:1021A0000190FFE70198C0070028E5D1FFE710483C
:1021B00000688007002802D4FFE7FFE7FEE70D492B
:1021C0000091086808600868086008680322904366
:1021D000086008680860FFE7064800680007800F8D
:1021E00008B1FFE7F8E704B080BDC0460020024018
:1021F00000100240081002400448421D04498A6051
:1022000040F20512801808617047C0463402002071
:102210003C040020382200080000002020000000BC
:10222000200100085822000820000020780C00003F
:102230003C01000800000000110D000000000048F3
:10224000100000000101000410000000090000005F
:08225000000000000000000086
:04000005080000DD12
:00000001FF
